:020000040000FA
:1000000058080020250200006502000009020000D7
:10001000690200006B0200006D0200000000000099
:100020000000000000000000000000006F0200005F
:100030007102000000000000730200007502000061
:1000400077020000770200007702000077020000CC
:1000500077020000770200007702000077020000BC
:1000600077020000770200007702000077020000AC
:10007000770200007702000077020000770200009C
:10008000770200007702000077020000770200008C
:10009000770200007702000077020000770200007C
:1000A000770200007702000077020000770200006C
:1000B000770200007702000077020000770200005C
:1000C00077020000C51300007702000077020000ED
:1000D000E9140000770200007702000077020000B8
:1000E000770200007702000077020000770200002C
:1000F000770200007702000077020000770200001C
:10010000770200007702000077020000770200000B
:1001100077020000770200007702000077020000FB
:1001200075030000770200007702000077020000EC
:1001300077020000770200007702000077020000DB
:1001400077020000770200007702000077020000CB
:1001500077020000770200007702000077020000BB
:1001600077020000770200007702000077020000AB
:10017000770200007702000077020000770200009B
:10018000770200007702000077020000770200008B
:10019000770200007702000077020000770200007B
:1001A000770200007702000077020000770200006B
:1001B000770200007702000077020000770200005B
:1001C000770200007702000077020000770200004B
:1001D000770200007702000077020000770200003B
:1001E000770200007702000077020000770200002B
:1001F00077020000DFF80CD000F0AAF800480047B2
:10020000D91C00005808002004207146084202D082
:10021000EFF3098001E0EFF308807146004A1047D0
:10022000FD0F000014484FF0590101604FF0160116
:1002300001604FF0880101601048416841F480413D
:1002400041600F48416841F002014160416841F05E
:10025000040141600B48804707484FF000010160EE
:1002600009480047FEE7FEE7FEE7FEE7FEE7FEE798
:10027000FEE7FEE7FEE7FEE7000100400002004067
:10028000007000406D120000F50100002DE9F05FE4
:100290000546002092469B468846064681464024F5
:1002A0001BE0284641464746224600F041F85346A7
:1002B0005A46C01A914110D311461846224600F002
:1002C00028F82D1A67EB01084F462246012000212D
:1002D00000F01FF817EB00094E41201EA4F10104A5
:1002E000DFDC484631462A464346BDE8F09F40EAF7
:1002F00001039B0703D009E008C9121F08C0042AA4
:10030000FAD203E011F8013B00F8013B521EF9D28A
:100310007047202A04DB203A00FA02F100207047DF
:100320009140C2F1200320FA03F319439040704733
:10033000202A04DB203A21FA02F00021704721FA3A
:1003400002F3D040C2F120029140084319467047A1
:10035000064C074D06E0E06840F0010394E8070012
:1003600098471034AC42F6D3FFF748FF041E000054
:10037000241E000070B5264D2C69B4F5004F12D034
:10038000002C3AD0296923A0491E01F029FA214600
:10039000284600F059F92869401EC1B22846BDE838
:1003A000704000F0F7B86868C00606D5686820F0AD
:1003B000100068601EA001F013FA6868000706D5F7
:1003C000686820F0080068601CA001F009FA6868FD
:1003D000400602D51CA001F003FA686800060BD5A0
:1003E0001CA001F0FDF941202860286820F04100A0
:1003F00028602868C007FCD170BDD5F86C010128C1
:10040000FAD117A001F0ECF90020C5F86C0170BD1D
:1004100000000A403D3E20496E746572727570742A
:1004200020506F696E746572203D2025640A0000BB
:100430005258204F4B20494E540A00005458204F28
:100440004B20494E540A0000455741524E20494E18
:10045000540A0000424F464620494E540A0000000C
:1004600057616B652075700A0000000010B5D0F868
:10047000983001221B0401D400223AE0436823F0A3
:10048000100343603323C0F88430D0F894305B0409
:1004900006D400230B60D0F89430C3F38A0309E03C
:1004A00001230B60D0F89430DB04DB088B60D0F8BC
:1004B000904023438B6050F8943F43F340335B1CE0
:1004C0004B60436803F00F030B7383684B738368BF
:1004D0001B0A8B73C368CB73C3681B0A0B74036955
:1004E0004B7403691B0A8B744369CB744069000A1F
:1004F0000875104610BD000010B50122036A1B04E8
:10050000FCD4436823F0080343600B687BB10B897C
:100510009BB203638B68C3F30C4343F48043436390
:100520004B68002B436B08D043F4005307E00023D3
:1005300003630B895B05DB0CF1E723F40053436392
:10054000836B0C7B23F00F032343836331F80D3F50
:10055000C3634B8803648B884364C9888164016AE0
:1005600021F400410162016A09040DD4016A41F4D9
:1005700000410162064B0021046A240402D5491C93
:100580009942F9D3994200D30022104610BD0000D1
:10059000FFFF0F0070B50C46054600F07FFD0146D9
:1005A000022800D1002101EB410005EB40100C2294
:1005B0004262641C04622846BDE8704000F09ABDA7
:1005C00070B505461248440385420BD1114800F02E
:1005D0009BFAE06B20F47F40E063E06B40F408405E
:1005E000E0630EE00C4885420BD10A48401C00F045
:1005F0008BFAA06B20F07F40A063A06B40F0AA4074
:10060000A0632846BDE870400022044900F068B8A5
:1006100000000A401800004000100A4020A1070016
:100620000122102902D2D0F8200102E0D0F82401E2
:1006300010398A4010407047016821F04101016083
:100640000168C907FCD1704710B50446012910D0D4
:10065000062914D0202918D10CA001F0C1F8124AA3
:100660001F21204600F0A1F8BDE810400E4800F020
:10067000C7B90EA001F0B4F80B4A0021F1E711A0B0
:1006800001F0AEF8084A0521EBE710BD4D73672D68
:10069000333120494E5420616E642043616C6C629A
:1006A00061636B200A000000400000204D73672D3D
:1006B0003020494E5420616E642043616C6C62614D
:1006C000636B0A004D73672D3520494E5420616ECF
:1006D000642043616C6C6261636B200A000000005F
:1006E00070B51546044600F073F8012D05D1226857
:1006F000042142F080022260616170BD2DE9F04169
:100700001C461746884606460125FFF789FF60B15B
:10071000304600F0C3FC0146022806D0706820F085
:10072000100070601FB1042002E000253AE00020B4
:1007300040F07B0201EB410006EB4010426208F101
:1007400001020262026A1204FCD4426B520405D414
:1007500000222260426BC2F38A0207E0012222607B
:10076000026B436BC3F30C0342EA0342A260826B49
:1007700002F00F022273C26B6273C26B120AA27381
:10078000026CE273026C120A2274426C6274426C54
:10079000120AA274826CE274806C000A20753046E2
:1007A00000F0A8FC2846BDE8F08130B40C46416951
:1007B000036801F004011B0604D519B130BC1146D1
:1007C000FFF754BEE1B2134630BC0122FFF796BFDB
:1007D0002DE9F04F89B080465C48079000200090DA
:1007E0000490029003900E464FF47A700124412148
:1007F000069000252746C8F8001000F013FD544A63
:100800004FF001095003904502D0524A904504D15F
:10081000D0F8340200F0070006E04F4A904506D1B8
:10082000D0F83402C0F3021009FA00F4E5174B487F
:1008300022462B4600680021FFF728FD82464848E3
:100840008B46864201D3064602E04648864202D9DC
:1008500040F2EE2007E04448864202D94FF4487047
:1008600001E040F26B3031240190012000EB54098B
:1008700009FB06F2002350465946FFF707FD04EB3B
:10088000D471059121F00101611A4518A5F101000B
:10089000B0F5806F22D205FB09F2D31750465946B6
:1008A000FFF7F4FC301A00D540420799884215DC66
:1008B000079070B9059803AB411002AA019801F0A6
:1008C000E0F90199081A00D540420699884205DCF2
:1008D0000690059904954910009110B1641E062CEC
:1008E000C3D2DDE9001003AB02AA01F0CAF9042F5C
:1008F00000D90427039CBC4200D22746029D0498DD
:100900002A19521C4243D31750465946FFF7BEFCE2
:10091000024620036FF0FF0101EB0521A0F5805096
:1009200008430499491E01F03F03184340EA871326
:100930004046C8F80C30C1F38311C8F81810FFF70F
:100940007BFE09B01046BDE8F08F000000CA9A3B5C
:1009500000000A4000200A4000100A400000002069
:1009600040420F0000350C0020A107002DE9F041A6
:1009700014460E460746012500F090FB014602286A
:1009800017D001EB410007EB4010F32242622268CE
:100990008AB1228992B20263A268C2F30C4242F485
:1009A000604242636268002A426B0ED042F40052F9
:1009B0000DE0002520E00022026322894FF420434D
:1009C000C2F30A0243EA8202EBE722F400524263D6
:1009D00034F80D2FC26362880264A2884264E28800
:1009E000826414F8012C48F680031A438263761C53
:1009F0000662384600F07EFB2846BDE8F081000024
:100A000070B50546037B006808B10CA200E00CA29B
:100A10000CA0A96800F0E4FE002406E02819417B40
:100A200011A000F0DDFE641CE4B2287BA042F5D8E2
:100A3000BDE870400EA000F0D3BE00004558540041
:100A400053544400526561642049443D2538582C74
:100A500020547970653D25732C20444C433D25641A
:100A60002C446174613D0000253032582C00000098
:100A70000A0A000070B5054640690E46012429683F
:100A800000F00400090606D528B111462846FFF7F4
:100A900033FD044608E031462846FFF767FF28B1DA
:100AA0003146284600F004F8204670BD0024FBE7DC
:100AB00070B50E460446012500F0F0FA0246022801
:100AC00017D0606820F00800606002EB420004EB81
:100AD00040100C214162761C0662016A0904FCD4B4
:100AE0008421416206621146204600F003FB28463D
:100AF00070BD0025FBE74FF08040D0F8401241F474
:100B00008031C0F84012704700F01F02012191406F
:100B1000034A800F02EB800002680A4302607047BC
:100B2000040200402DE9F84F0D460446FFF7E3FFAD
:100B30004FF08040484ED0F80012C4B141F004019B
:100B4000C0F80012102000F009FA4FF400200090C5
:100B5000424843492844B34688426DD84FF00009C3
:100B60004FF0FF324F464E46AE46012015E041F0B1
:100B70000101C0F80012012000F0F0F90020E6E7C2
:100B8000F2B3032839D0042802D0022805D102E0AC
:100B90004FEA8E0501E04FEA4E0502236AB3BBFB24
:100BA000F3F1304CDFF8BCC00C44CCF1000C6445D0
:100BB00020D80224C1F35D0ADFF8A0C00AFB04F1CB
:100BC00001EB0C08DFF8A0C0E0450ED8B1EB950FA3
:100BD00002D9A1EB950101E0C1EB9501914204D24C
:100BE0000A0099462746064604D040F20121641CBB
:100BF0008C42E1D95B1C202BD0D9401C042800E09A
:100C000000E0BDD91948009900EB8630184A084326
:100C100002EB49210843B91E08434FF08041C1F857
:100C20004002042000F09AF906FB09F6BBFBF6F03F
:100C300078434000BDE8F88F5CB10E494FF080402A
:100C4000C0F84012042000F089F9BDE8F84F00F028
:100C50009FB844F21E21F1E7001BB700800F05FD8D
:100C60008074D21A00F7C2FFC068780400C0FFFF8A
:100C700000FEFFFF1E4208004FF08041D1F8002225
:100C80000243C1F80022704710B500F0CBFA0148CA
:100C9000006810BD000000204FF08040D0F8000236
:100CA000C00700D000487047001BB7004FF08040DD
:100CB000D0F80002800702D54FF4004070470020B2
:100CC0007047000010B500F0ADFA4FF08041D1F848
:100CD00034024207134817D0D1F8342202F0070239
:100CE000012A13D0D1F8342202F00702022A10D0D0
:100CF000D1F8342202F00702032A0DD0D1F83412C1
:100D000001F0070104290AD0006810BD00684008FE
:100D100010BD0068800810BD0068C00810BD0068E4
:100D2000000910BD0000002010B500F07BFA4FF064
:100D30008041D1F8340210F0700F144817D0D1F868
:100D40003422C2F30212012A13D0D1F83422C2F3A2
:100D50000212022A10D0D1F83422C2F30212032A5E
:100D60000DD0D1F83412C1F3021104290AD0006861
:100D700010BD0068400810BD0068800810BD006804
:100D8000C00810BD0068000910BD00000000002070
:100D900008B510A10020096800914FF08041D1F8FA
:100DA000401211F4A02F13D10B488A0310D4C1F3C1
:100DB0000800C1F38132094B801C1DF80220C1F3E9
:100DC00044215843491C11FB02F1B0FBF1F0C00073
:100DD00008BD000001020204001BB700C0C62D00C0
:100DE00070B54FF080440646D4F8500200F010056C
:100DF0001B48864200D90646D4F8000240F00400A1
:100E0000C4F80002102004F5007400F0A7F820696F
:100E100040F007002061206A20F00F002062206867
:100E2000A4F50074C007314604D00020FFF77AFE15
:100E3000064608E04FF40020FFF774FE0646D4F89B
:100E4000500200F010050021022000F00BF82DB92F
:100E5000D4F8000220F00400C4F80002304670BD4F
:100E600000B0710B2DE9F0414FF080440746D4F8F3
:100E700050020E4600F01005D4F8000240F00400C5
:100E8000C4F80002102004F5007400F067F820692F
:100E900040F007002061206A20F00F0030432062FC
:100EA000206920F0070038432061A4F5007400F0A9
:100EB000B9F9002D05D1D4F8000220F00400C4F8DF
:100EC0000002BDE8F0810000F0B510F47F3F2ED0A5
:100ED0004FF08043D3F8F431DFF878C0DFB21D4B18
:100EE000C0F381440C3B6FEA90450CF1040603EB20
:100EF0008403012F02D0022C0DD001E0022C02D07D
:100F0000AC070AD00AE0C343DC06134B06D000F05E
:100F10001F041D2C02D0634600E033461C68C0F35A
:100F20008725C0F34416B540AC4314431C60420E01
:100F300052070ED0084BC0F30172183B03EB82023C
:100F40001368C0F34264C0F304508440A3430B43CE
:100F50001360F0BD2C0200402802004030B501248F
:100F600005460849A20705E0081EA1F1010101DCC0
:100F7000002404E0D2F8503235EA0300F4D12046D0
:100F800030BD000080F5200010B54FF08040816E2C
:100F900021F470218166816E21F470018166816E79
:100FA00021F070618166094C01221021204600F079
:100FB0000FF801222021204600F00AF820460122E5
:100FC000BDE81040402100F003B80000C0410040DF
:100FD000F0B500230127032507FA03F48C4309D158
:100FE00006685C0005FA04FC26EA0C0602FA04F422
:100FF000264306605B1C102BEED3F0BD044603A015
:1010000000F0EEFB204600F079FEFEE7496E204836
:10101000617264204661756C742048616E646C6511
:10102000720A000070B5194A904201D1002108E00F
:10103000174A904201D1012103E0164A904200D1A3
:10104000022103680222046803F00E0324F00E0458
:101050000460046A4FF0010526040F4C02D414F812
:10106000116046B1D0F8806036040AD404EB410127
:101070004C7824B105E004F81150002201E04D70D5
:101080000122016819430160104670BD00000A404A
:1010900000100A4000200A403000002070B50646CB
:1010A00000244FF080553046FFF7BCFF022802D1E4
:1010B000641CAC42F7D370BD00F01F0201219140C7
:1010C0004009800000F1E020C0F8001170470000E6
:1010D000BFF34F8F05480168054A01F4E0611143F1
:1010E0000160BFF34F8F00BFFDE700000CED00E093
:1010F0000400FA0530B502291CD20F4B984201D1E9
:10110000002208E00D4B984201D1012203E00C4B74
:10111000984200D102220368046803F00E0324F011
:101120000E040460074D002405EB4202545401688C
:101130001943016030BD000000000A4000100A4061
:1011400000200A403000002070B559208407162185
:101150008822C4F80001C4F80011C4F80021D4F8B2
:101160000031002BF5D04FF04020D0F8401121F095
:10117000F001C0F840110520FFF77EFD1120FFF7B8
:10118000EDFE0A20FFF778FD0A20FFF7E7FE14487E
:10119000FFF726FE1120C4F83402124D2846FFF74F
:1011A000B3FC00224FF040712846FFF78DFEE06B44
:1011B00020F47F00E063E06B40F4CC00E0630A4D74
:1011C0002846FFF7A1FC00224FF4E0412846FFF734
:1011D0007BFE00F027F80020C4F8000170BD00007D
:1011E00000B0710B103D80570300C05E0121044A1E
:1011F000814002EB106002680A438A430260704734
:101200000800004006498A691202FCD40A2804D169
:101210000D220A608A691202FCD40860704700003F
:101220000000074010B5FFF7B3FD0E4A4FF08043B2
:101230009060D3F8101201F00701022903D002F1E7
:101240000C0050F82100D3F8201201F00F01491CC6
:10125000B0FBF1F00449106008444900B0FBF1F024
:10126000506010BD0000002020A107001A4801684E
:1012700041F4700101601948C16C21F00F0141F087
:101280000801C1644FF08040D0F8981241F48021E9
:10129000C0F89812D0F8081241F00201C0F8081204
:1012A0000F49D1F8042102F0F732C1F80421D1F836
:1012B000082102F0F732C1F80821D0F8081221F015
:1012C0000201C0F808124FF04020D0F8401121F080
:1012D000F001C0F84011704788ED00E000C0004008
:1012E0000010044010B50A4C4FF47A724FF00061C0
:1012F000204600F04BF8206840F00050206021208C
:10130000FFF7DAFE206840F08040206010BD00004A
:101310000001054010B588B00446202217496846F0
:10132000FEF7E5FF164A174B9003944204D1D0F81C
:101330001402C0F3022110E09C4204D1D0F8140240
:10134000C0F3023109E01049D0F814028C4202D1F6
:10135000C0F3024101E0C0F30251022903D05DF85D
:10136000210008B010BD944201D09C4202D1FFF789
:10137000A9FCF6E7FFF7D8FCF3E70000E41D000046
:1013800000000540000105400010054070B51646FC
:101390000D460446FFF7BEFF0023B6EB500F01D900
:1013A000022206E0B0FBF6F2130E02D0591CB2FB8B
:1013B000F1F21D43256062605B1C5A43B0FBF2F002
:1013C00070BD00000D4800B58168C1F3000100291F
:1013D00012D00121816000F0E5FC094A50684FF409
:1013E0007A71B0FBF1F301FB130020B905480168E5
:1013F00081F001010160506800BD0000000105405E
:1014000038000020D049004000B587B0012101918B
:1014100000911349029104218DF80C10A1218DF83F
:101420000D10B2218DF80E10C3218DF80F10D421AC
:101430008DF810106A460321FFF71CFB68B109A064
:1014400000F0CEF9002042F21071401C8842FCD31B
:1014500010A000F0C5F907B000BD1CA0F9E700001E
:1014600001FF07004D53472833292E53656E642032
:101470004558543A30783746463031202C44617410
:10148000615B41312C42322C43332C44345D646F18
:101490006E650A00547261736D697420446F6E65E5
:1014A000210A436865636B20746865207265636513
:1014B00069766520686F7374207265636569766507
:1014C0006420646174610A0A00000000536574209E
:1014D0005478204D7367204F626A6563742066619B
:1014E000696C65640A00000010B50B4CE06910F4EB
:1014F000885F02D104E000F049F9A1694904FAD5F6
:10150000A169204611F0710F05D0BDE810404FF4DD
:10151000105100F087B810BD0000074010B51E48FC
:10152000FFF764FE1D4C4FF4E131204600F098F8BF
:101530001421204600F020F9A06820F01000A060DF
:10154000A06840F02000A060606840F611010843E8
:1015500060602420FFF7B0FDFFF796FB014610A066
:1015600000F03EF9FFF798FB014614A000F038F9AF
:10157000FFF79CFB014617A000F032F9FFF7A2FB32
:1015800001461AA000F02CF9FFF7CEFB0146BDE89A
:1015900010401DA000F024B9100000040000074016
:1015A0000D0A434C4B5F4765744350554672657155
:1015B000203A202538640D0A00000000434C4B5FA0
:1015C00047657448585446726571203A202538643E
:1015D0000D0A0000434C4B5F4765744C58544672EB
:1015E0006571203A202538640D0A0000434C4B5F9A
:1015F00047657450434C4B3046726571203A202544
:1016000038640D0A00000000434C4B5F476574507E
:10161000434C4B3146726571203A202538640D0ADF
:10162000000000004A0503D5702282610822826111
:101630000A0503D5426942F0010242618A0401D5DC
:10164000064A82614A0401D51F224264090404D576
:101650008021C16140F20F318163704701000001B8
:101660002DE9FF4104463C480F4600250FC88DE890
:101670000F003A492E464FF080408C4206D1D0F8F8
:101680001412D0F82002C1F301652AE034498C42DB
:1016900006D1D0F81412D0F82002C1F381652BE0F6
:1016A00030498C4208D1D0F81C12D0F83002C1F376
:1016B000016500F00F0621E02B498C4208D1D0F8DB
:1016C0001C12D0F83002C1F38165C0F3031615E097
:1016D00026498C4208D1D0F81C12D0F83002C1F350
:1016E0000175C0F3032609E021498C4206D1D0F8E8
:1016F0001C12D0F830028D0FC0F303360020206397
:101700000320E060A0681B490840A060E846012D66
:1017100002D1FFF73DFB0190002F1AD058F8251099
:10172000761CB1FBF6F000EB5700B0FBF7F0801E23
:10173000B0F5803F0AD3B1FBF6F000EBC700B0FB79
:10174000F7F06FF0010101EB101001E040F04050A4
:101750006062BDE8FF810000B41D0000000007408A
:1017600000100740002007400030074000400740BD
:10177000005007400FFFF0FF026A22F0FF020A4309
:101780000262416841F40061416070470E4810B543
:101790000068C0B2782814D0582812D07F2804D905
:1017A000BDE8104009A000F01BB85A2809D004DC9D
:1017B000312808D0582806D103E0782801D07A28AB
:1017C00001D1FFF785FC10BD00000740696E76610E
:1017D0006C696420636F6D6D616E640D0A000000BA
:1017E0000FB4054B10B503A9044A029800F018F88D
:1017F00010BC5DF814FB0000CB1C00002C00002086
:1018000002E008C8121F08C1002AFAD170477047C9
:10181000002001E001C1121F002AFBD17047000027
:101820002DE9FF4F8DB00F460546002606E025281E
:101830000BD0DDE90F1290476D1C761C287800282C
:10184000F5D111B03046BDE8F08F0024A246A14684
:101850000122EC4900E0044315F8013F203B02FA65
:1018600003F00842F7D128782A2810D06FF02F0211
:101870002878A0F13001092914D80AEB8A0102EB7B
:10188000410144F0020400EB010A6D1CF0E701CFB6
:101890005FEA000A03D544F40054CAF1000A44F098
:1018A00002046D1C28782E2817D115F8010F44F07A
:1018B00004042A280ED06FF02F022878A0F13001FE
:1018C00009290AD809EB890102EB410100EB010962
:1018D0006D1CF2E757F8049B6D1C28786C280FD01C
:1018E00006DC4C2817D068280DD06A2814D104E0F3
:1018F000742810D07A280FD10DE044F400140AE0C7
:1019000044F4801401E044F440146978814202D127
:1019100004F580146D1C6D1C2A786E2A1FD00CDC17
:10192000632A31D004DC002A8BD0582A11D1A3E0DD
:10193000642A68D0692A0CD165E0732A2ED004DCB1
:101940006F2A73D0702A04D19BE0752A6FD0782A51
:101950006ED01046DDE90F129047761C50E1C4F3BB
:101960000250022806D0032809D0042801CF09D04C
:10197000066045E101CFF117C0E9006140E101CF08
:1019800006803DE106703BE117F8040B8DF800007E
:1019900000208DF80100EB46012003E057F804BB5E
:1019A0004FF0FF3061074FF0000102D40DE008F165
:1019B0000101884649450FDA8045F8DB1BF808101D
:1019C0000029F4D108E008F1010188468142FADBE0
:1019D0001BF808100029F6D1DDE90F23AAEB080057
:1019E0008146214600F036F9304400EB080604E059
:1019F000DDE90F121BF8010B9047B8F10108F7D28F
:101A000021464846F7E00A21C4F302534FF0000B89
:101A10000891022B04D001CFC117032B09D00AE093
:101A2000FF1D27F00707F7E8020108E032E01FE09A
:101A300020E000B2C117042B01D140B2C117031E30
:101A400071F1000307DA4FF0000CD0EB0C006CEBE7
:101A500001012D2302E0230504D52B238DF824302A
:101A6000012303E0E30701D02023F7E7984658E07D
:101A70000A2110E010210EE010204FF0000B08901A
:101A80000CE010214FF0000B44F004044FF0080963
:101A9000089103E008214FF0000B0891C4F30253B2
:101AA000022B04D001CF0021032B06D006E0FF1D3E
:101AB00027F00707F7E8020103E080B2042B00D10A
:101AC000C0B24FF0000823072BD5702A07D0DDF8ED
:101AD00020C08CF0100C5CEA0B0C05D00EE040230B
:101AE0008DF82430012308E050EA010306D03023AA
:101AF0008DF824308DF8252002239846DDF820C08B
:101B00008CF0080C5CEA0B0C0BD150EA010301D1FC
:101B1000630706D530238DF824304FF00108A9F172
:101B20000109582A04D038A20B9208AA0A920BE0A5
:101B30003AA2F9E75B46089AFEF7A8FB0B9B9B5C71
:101B40000A9A521E0A92137050EA0102F2D10A98C0
:101B5000ADEB000000F1200B600702D524F48034C7
:101B600001E04FF00109D94502DDA9EB0B0000E0CF
:101B7000002000EB0B0141440890AAEB010AE003AE
:101B800006D4DDE90F232146504600F063F80644F1
:101B90004FF0000908E009A911F80900DDE90F126A
:101BA000904709F10109761CC145F4DBE0030CD52F
:101BB000DDE90F232146504600F04CF8064404E0CE
:101BC000DDE90F1230209047761C0899481E0890D6
:101BD0000029F5DC08E00A980A990078491C0A9166
:101BE000DDE90F129047761CBBF10001ABF1010B50
:101BF000F1DC21465046DDE90F2300F019F80644D8
:101C00006D1C1BE60928010030313233343536377C
:101C10003839616263646566000000003031323338
:101C200034353637383941424344454600000000D8
:101C30002DE9F041044600251E461746880404D4C9
:101C400005E039462020B0476D1C641EF9D52846B2
:101C5000BDE8F0812DE9F041044600251E4690467E
:101C6000C80301D5302700E02027880404D505E00B
:101C700041463846B0476D1C641EF9D52846BDE87C
:101C8000F08130B54C1C60434FF47A7590FBF5F051
:101C9000081A401C186009D0082801D908201860CB
:101CA000081A1060102803D8186806E00120F6E72B
:101CB00010201060A1F110001860081A4FF47A711A
:101CC000401C484390FBF4F030BD10B50446FFF7CC
:101CD00099FA204610BD0000074CFFF735FAFFF7D0
:101CE0001DFCFFF751F9FFF7FDFA2046FEF768FCEF
:101CF0002046FFF789FBFEE700000A4010B50446C6
:101D0000016810A0FFF76CFD11A06168FFF768FD86
:101D100012A0A168FFF764FD13A0E168FFF760FD62
:101D200014A02169FFF75CFD15A06169FFF758FD5C
:101D300016A0A169FFF754FDE169BDE8104016A0A7
:101D4000FFF74EBD723020203D20307825780A0004
:101D5000723120203D20307825780A007232202010
:101D60003D20307825780A00723320203D203078DD
:101D700025780A00723132203D20307825780A001B
:101D80006C7220203D20307825780A007063202076
:101D90003D20307825780A00707372203D2030781D
:101DA00025780A0002484168491C416070470000DC
:101DB00038000020001BB700000000000080000079
:101DC000001BB700001BB7000000000000800000EF
:101DD000001BB700001BB7000000000000800000DF
:101DE000001BB700001BB7000080000000000000CF
:101DF00000000000000000001027000000000000AC
:101E0000001BB700241E000000000020400000005E
:101E100000180000641E00004000002018080000A8
:101E200010180000001BB7000C000000001BB700DA
:101E3000001BB70000800000000000001027000019
:101E4000000000000000000000000000001BB700C0
:101E50000000000000000000000000000000000082
:041E6000000000007E
:0400000500000225D0
:00000001FF
